{
  "contractName": "Allowance",
  "abi": [
    {
      "inputs": [
        {
          "internalType": "address",
          "name": "_parent",
          "type": "address"
        },
        {
          "internalType": "address",
          "name": "_child",
          "type": "address"
        }
      ],
      "stateMutability": "nonpayable",
      "type": "constructor"
    },
    {
      "inputs": [],
      "name": "child",
      "outputs": [
        {
          "internalType": "address",
          "name": "",
          "type": "address"
        }
      ],
      "stateMutability": "view",
      "type": "function"
    },
    {
      "inputs": [],
      "name": "childBalance",
      "outputs": [
        {
          "internalType": "uint256",
          "name": "",
          "type": "uint256"
        }
      ],
      "stateMutability": "view",
      "type": "function"
    },
    {
      "inputs": [],
      "name": "limit",
      "outputs": [
        {
          "internalType": "uint256",
          "name": "",
          "type": "uint256"
        }
      ],
      "stateMutability": "view",
      "type": "function"
    },
    {
      "inputs": [],
      "name": "lockTime",
      "outputs": [
        {
          "internalType": "uint256",
          "name": "",
          "type": "uint256"
        }
      ],
      "stateMutability": "view",
      "type": "function"
    },
    {
      "inputs": [],
      "name": "parent",
      "outputs": [
        {
          "internalType": "address",
          "name": "",
          "type": "address"
        }
      ],
      "stateMutability": "view",
      "type": "function"
    },
    {
      "inputs": [],
      "name": "timeOfWithdraw",
      "outputs": [
        {
          "internalType": "uint256",
          "name": "",
          "type": "uint256"
        }
      ],
      "stateMutability": "view",
      "type": "function"
    },
    {
      "inputs": [],
      "name": "depositEther",
      "outputs": [],
      "stateMutability": "payable",
      "type": "function"
    },
    {
      "inputs": [
        {
          "internalType": "uint256",
          "name": "_amount",
          "type": "uint256"
        },
        {
          "internalType": "address",
          "name": "_address",
          "type": "address"
        }
      ],
      "name": "withdrawEther",
      "outputs": [],
      "stateMutability": "nonpayable",
      "type": "function"
    }
  ],
  "bytecode": "0x60806040526005805562093a8060065534801561001b57600080fd5b50604051610ac0380380610ac0833981810160405281019061003d9190610131565b600160008190555081600160006101000a81548173ffffffffffffffffffffffffffffffffffffffff021916908373ffffffffffffffffffffffffffffffffffffffff16021790555080600260006101000a81548173ffffffffffffffffffffffffffffffffffffffff021916908373ffffffffffffffffffffffffffffffffffffffff1602179055505050610171565b600080fd5b600073ffffffffffffffffffffffffffffffffffffffff82169050919050565b60006100fe826100d3565b9050919050565b61010e816100f3565b811461011957600080fd5b50565b60008151905061012b81610105565b92915050565b60008060408385031215610148576101476100ce565b5b60006101568582860161011c565b92505060206101678582860161011c565b9150509250929050565b610940806101806000396000f3fe60806040526004361061007b5760003560e01c8063722b488f1161004e578063722b488f1461012c57806398ea5fca14610157578063a4d66daf14610161578063ce56c4541461018c5761007b565b80630d66808714610080578063237b5e96146100ab578063363bda64146100d657806360f96a8f14610101575b600080fd5b34801561008c57600080fd5b506100956101b5565b6040516100a2919061047e565b60405180910390f35b3480156100b757600080fd5b506100c06101bb565b6040516100cd91906104da565b60405180910390f35b3480156100e257600080fd5b506100eb6101e1565b6040516100f8919061047e565b60405180910390f35b34801561010d57600080fd5b506101166101e7565b60405161012391906104da565b60405180910390f35b34801561013857600080fd5b5061014161020d565b60405161014e919061047e565b60405180910390f35b61015f610213565b005b34801561016d57600080fd5b506101766102b9565b604051610183919061047e565b60405180910390f35b34801561019857600080fd5b506101b360048036038101906101ae9190610552565b6102bf565b005b60065481565b600260009054906101000a900473ffffffffffffffffffffffffffffffffffffffff1681565b60045481565b600160009054906101000a900473ffffffffffffffffffffffffffffffffffffffff1681565b60035481565b600160009054906101000a900473ffffffffffffffffffffffffffffffffffffffff1673ffffffffffffffffffffffffffffffffffffffff163373ffffffffffffffffffffffffffffffffffffffff16146102a3576040517f08c379a000000000000000000000000000000000000000000000000000000000815260040161029a906105ef565b60405180910390fd5b346003546102b1919061063e565b600381905550565b60055481565b81471015610302576040517f08c379a00000000000000000000000000000000000000000000000000000000081526004016102f9906106e0565b60405180910390fd5b816005541015610347576040517f08c379a000000000000000000000000000000000000000000000000000000000815260040161033e90610772565b60405180910390fd5b600654600454610357919061063e565b421015610399576040517f08c379a000000000000000000000000000000000000000000000000000000000815260040161039090610804565b60405180910390fd5b60008173ffffffffffffffffffffffffffffffffffffffff16836040516103bf90610855565b60006040518083038185875af1925050503d80600081146103fc576040519150601f19603f3d011682016040523d82523d6000602084013e610401565b606091505b5050905080610445576040517f08c379a000000000000000000000000000000000000000000000000000000000815260040161043c906108b6565b60405180910390fd5b8260035461045391906108d6565b60038190555042600481905550505050565b6000819050919050565b61047881610465565b82525050565b6000602082019050610493600083018461046f565b92915050565b600073ffffffffffffffffffffffffffffffffffffffff82169050919050565b60006104c482610499565b9050919050565b6104d4816104b9565b82525050565b60006020820190506104ef60008301846104cb565b92915050565b600080fd5b61050381610465565b811461050e57600080fd5b50565b600081359050610520816104fa565b92915050565b61052f816104b9565b811461053a57600080fd5b50565b60008135905061054c81610526565b92915050565b60008060408385031215610569576105686104f5565b5b600061057785828601610511565b92505060206105888582860161053d565b9150509250929050565b600082825260208201905092915050565b7f4e6f742074686520706172656e74210000000000000000000000000000000000600082015250565b60006105d9600f83610592565b91506105e4826105a3565b602082019050919050565b60006020820190508181036000830152610608816105cc565b9050919050565b7f4e487b7100000000000000000000000000000000000000000000000000000000600052601160045260246000fd5b600061064982610465565b915061065483610465565b9250827fffffffffffffffffffffffffffffffffffffffffffffffffffffffffffffffff038211156106895761068861060f565b5b828201905092915050565b7f436f6e747261637420646f65736e2774206861766520656e6f75676820455448600082015250565b60006106ca602083610592565b91506106d582610694565b602082019050919050565b600060208201905081810360008301526106f9816106bd565b9050919050565b7f43616e6e6f74207769746864726177206d6f7265207468616e20436f6e74726160008201527f637420616d6f756e740000000000000000000000000000000000000000000000602082015250565b600061075c602983610592565b915061076782610700565b604082019050919050565b6000602082019050818103600083015261078b8161074f565b9050919050565b7f43616e6e6f74207769746864726177206d6f7265207468616e2031782f77656560008201527f6b00000000000000000000000000000000000000000000000000000000000000602082015250565b60006107ee602183610592565b91506107f982610792565b604082019050919050565b6000602082019050818103600083015261081d816107e1565b9050919050565b600081905092915050565b50565b600061083f600083610824565b915061084a8261082f565b600082019050919050565b600061086082610832565b9150819050919050565b7f4574686572207472616e73666572206661696c65640000000000000000000000600082015250565b60006108a0601583610592565b91506108ab8261086a565b602082019050919050565b600060208201905081810360008301526108cf81610893565b9050919050565b60006108e182610465565b91506108ec83610465565b9250828210156108ff576108fe61060f565b5b82820390509291505056fea2646970667358221220f70a2075e7ef02b60bb9e923413e96a4fb2d7fccebdab9a7932353b5fd6463db64736f6c634300080a0033",
  "immutableReferences": {},
  "source": "// SPDX-License-Identifier: MIT\npragma solidity 0.8.10;\n\nimport \"@openzeppelin/contracts/security/ReentrancyGuard.sol\";\n\n/// @title Contract for managing a parent/child allowance\n/// @author Rachel Teeter\n/// @notice The limit and lockTime are currently hardcoded, but will be able to set in future versions\n/// @dev Inherits the ReentrancyGuard contract from @openzeppelin\ncontract Allowance is ReentrancyGuard {\n  /// @notice Parent and child addresses set in frontend\n  address public parent;\n  address public child;\n\n  uint public childBalance;\n  uint public timeOfWithdraw;\n\n  /// @notice The limit is set to 5, and represents how much ETH can be withdrawn from the contract at one time\n  // TODO: Remove hardcoded amount and set as a constructor\n  uint public limit = 5;\n\n  /// @notice The lockTime is set to 7 days, and represents how long an account must wait between withdraws from the contract\n  // TODO: Remove hardcoded amount and set as a constructor\n  uint public lockTime = 7 days;\n\n  modifier isParent() {\n    require(msg.sender == parent, \"Not the parent!\");\n    _;\n  }\n\n  constructor(address _parent, address _child) {\n    parent = _parent; \n    child = _child;\n  }\n\n  /// @notice Deposits Ether into contract\n  /// @dev Only the parent account can deposit Ether into contract\n\tfunction depositEther() payable public isParent() {\n    childBalance = childBalance + msg.value;\n\t}\n\n  /// @notice Withdraw Ether from contract\n  /// @param _amount The amount that is deposited into the given address\n  /// @param _address The account in which the Ether is deposited into\n  function withdrawEther(uint _amount, address _address) public {\n    // TODO: Differientiate between parent and child address; parent account can withdraw ETH without time and amount limitations\n    \n    /// @dev The amount in the contract must over or equal to the requested withdrawl amount\n    require(address(this).balance >= _amount, \"Contract doesn't have enough ETH\");\n\n    /// @dev The amount requested must be less than set limit amount (5 ETH)\n    require(limit >= _amount, \"Cannot withdraw more than Contract amount\");\n\n    /// @dev The withdraw must only execute if last withdraw was over or equal to 1 week ago\n    require(block.timestamp >= timeOfWithdraw + lockTime, \"Cannot withdraw more than 1x/week\");\n\n    /// @dev Check to make sure execution of transfer is a success, otherwise revert\n    (bool success, ) = payable(_address).call{value: _amount}(\"\");\n    require(success, \"Ether transfer failed\");\n\n    childBalance = childBalance - _amount;\n    timeOfWithdraw = block.timestamp;\n\t}\n}\n",
  "sourcePath": "/Users/rteeter/code/blockchain-developer-bootcamp-final-project/contracts/Allowance.sol",
  "compiler": {
    "name": "solc",
    "version": "0.8.10+commit.fc410830.Emscripten.clang"
  },
  "schemaVersion": "3.4.3",
  "updatedAt": "2021-12-04T03:49:35.231Z",
  "devdoc": {
    "author": "Rachel Teeter",
    "details": "Inherits the ReentrancyGuard contract from @openzeppelin",
    "kind": "dev",
    "methods": {
      "depositEther()": {
        "details": "Only the parent account can deposit Ether into contract"
      },
      "withdrawEther(uint256,address)": {
        "params": {
          "_address": "The account in which the Ether is deposited into",
          "_amount": "The amount that is deposited into the given address"
        }
      }
    },
    "title": "Contract for managing a parent/child allowance",
    "version": 1
  },
  "userdoc": {
    "kind": "user",
    "methods": {
      "depositEther()": {
        "notice": "Deposits Ether into contract"
      },
      "limit()": {
        "notice": "The limit is set to 5, and represents how much ETH can be withdrawn from the contract at one time"
      },
      "lockTime()": {
        "notice": "The lockTime is set to 7 days, and represents how long an account must wait between withdraws from the contract"
      },
      "parent()": {
        "notice": "Parent and child addresses set in frontend"
      },
      "withdrawEther(uint256,address)": {
        "notice": "Withdraw Ether from contract"
      }
    },
    "notice": "The limit and lockTime are currently hardcoded, but will be able to set in future versions",
    "version": 1
  }
}